{
  "_format": "hh-sol-artifact-1",
  "contractName": "Library3",
  "sourceName": "contracts/Library3.sol",
  "abi": [
    {
      "anonymous": false,
      "inputs": [
        {
          "indexed": false,
          "internalType": "address",
          "name": "recipient",
          "type": "address"
        },
        {
          "indexed": false,
          "internalType": "uint256",
          "name": "id",
          "type": "uint256"
        },
        {
          "indexed": false,
          "internalType": "string",
          "name": "name",
          "type": "string"
        }
      ],
      "name": "AddBook",
      "type": "event"
    },
    {
      "anonymous": false,
      "inputs": [
        {
          "indexed": false,
          "internalType": "uint256",
          "name": "bookid",
          "type": "uint256"
        },
        {
          "indexed": false,
          "internalType": "bool",
          "name": "status",
          "type": "bool"
        }
      ],
      "name": "SetFinished",
      "type": "event"
    },
    {
      "inputs": [
        {
          "internalType": "string",
          "name": "name",
          "type": "string"
        },
        {
          "internalType": "uint16",
          "name": "year",
          "type": "uint16"
        },
        {
          "internalType": "string",
          "name": "author",
          "type": "string"
        },
        {
          "internalType": "string",
          "name": "url",
          "type": "string"
        },
        {
          "internalType": "bool",
          "name": "finished",
          "type": "bool"
        }
      ],
      "name": "addBook",
      "outputs": [],
      "stateMutability": "nonpayable",
      "type": "function"
    },
    {
      "inputs": [],
      "name": "getFinishedBook",
      "outputs": [
        {
          "components": [
            {
              "internalType": "uint256",
              "name": "id",
              "type": "uint256"
            },
            {
              "internalType": "string",
              "name": "name",
              "type": "string"
            },
            {
              "internalType": "string",
              "name": "author",
              "type": "string"
            },
            {
              "internalType": "uint16",
              "name": "year",
              "type": "uint16"
            },
            {
              "internalType": "string",
              "name": "url",
              "type": "string"
            },
            {
              "internalType": "bool",
              "name": "finished",
              "type": "bool"
            }
          ],
          "internalType": "struct Library3.Book[]",
          "name": "",
          "type": "tuple[]"
        }
      ],
      "stateMutability": "view",
      "type": "function"
    },
    {
      "inputs": [],
      "name": "getUnfinishedBook",
      "outputs": [
        {
          "components": [
            {
              "internalType": "uint256",
              "name": "id",
              "type": "uint256"
            },
            {
              "internalType": "string",
              "name": "name",
              "type": "string"
            },
            {
              "internalType": "string",
              "name": "author",
              "type": "string"
            },
            {
              "internalType": "uint16",
              "name": "year",
              "type": "uint16"
            },
            {
              "internalType": "string",
              "name": "url",
              "type": "string"
            },
            {
              "internalType": "bool",
              "name": "finished",
              "type": "bool"
            }
          ],
          "internalType": "struct Library3.Book[]",
          "name": "",
          "type": "tuple[]"
        }
      ],
      "stateMutability": "view",
      "type": "function"
    },
    {
      "inputs": [
        {
          "internalType": "uint256",
          "name": "bookId",
          "type": "uint256"
        },
        {
          "internalType": "bool",
          "name": "finished",
          "type": "bool"
        }
      ],
      "name": "setFinished",
      "outputs": [],
      "stateMutability": "nonpayable",
      "type": "function"
    }
  ],
  "bytecode": "0x608060405234801561001057600080fd5b50610fe1806100206000396000f3fe608060405234801561001057600080fd5b506004361061004c5760003560e01c80636aa835a81461005157806377e6e3d31461006d578063a8bbee8a14610089578063b75b4e5a146100a7575b600080fd5b61006b60048036038101906100669190610ae0565b6100c5565b005b61008760048036038101906100829190610a21565b6101cd565b005b610091610334565b60405161009e9190610cc0565b60405180910390f35b6100af610345565b6040516100bc9190610cc0565b60405180910390f35b3373ffffffffffffffffffffffffffffffffffffffff166001600084815260200190815260200160002060009054906101000a900473ffffffffffffffffffffffffffffffffffffffff1673ffffffffffffffffffffffffffffffffffffffff1614156101c9578060008381548110610167577f4e487b7100000000000000000000000000000000000000000000000000000000600052603260045260246000fd5b906000526020600020906006020160050160006101000a81548160ff0219169083151502179055507fa4f349f92993cc89f62be8c4bead1bd7d76d2e9c4d05da59739c6e0dd75f042c82826040516101c0929190610ce2565b60405180910390a15b5050565b60008080549050905060006040518060c001604052808381526020018881526020018681526020018761ffff168152602001858152602001841515815250908060018154018082558091505060019003906000526020600020906006020160009091909190915060008201518160000155602082015181600101908051906020019061025a92919061089b565b50604082015181600201908051906020019061027792919061089b565b5060608201518160030160006101000a81548161ffff021916908361ffff16021790555060808201518160040190805190602001906102b792919061089b565b5060a08201518160050160006101000a81548160ff0219169083151502179055505050336001600083815260200190815260200160002060006101000a81548173ffffffffffffffffffffffffffffffffffffffff021916908373ffffffffffffffffffffffffffffffffffffffff160217905550505050505050565b60606103406001610356565b905090565b60606103516000610356565b905090565b60606000808054905067ffffffffffffffff81111561039e577f4e487b7100000000000000000000000000000000000000000000000000000000600052604160045260246000fd5b6040519080825280602002602001820160405280156103d757816020015b6103c4610921565b8152602001906001900390816103bc5790505b5090506000805b60008054905081101561076d573373ffffffffffffffffffffffffffffffffffffffff166001600083815260200190815260200160002060009054906101000a900473ffffffffffffffffffffffffffffffffffffffff1673ffffffffffffffffffffffffffffffffffffffff161480156104b4575084151560008281548110610491577f4e487b7100000000000000000000000000000000000000000000000000000000600052603260045260246000fd5b906000526020600020906006020160050160009054906101000a900460ff161515145b1561075a57600081815481106104f3577f4e487b7100000000000000000000000000000000000000000000000000000000600052603260045260246000fd5b90600052602060002090600602016040518060c00160405290816000820154815260200160018201805461052690610e1c565b80601f016020809104026020016040519081016040528092919081815260200182805461055290610e1c565b801561059f5780601f106105745761010080835404028352916020019161059f565b820191906000526020600020905b81548152906001019060200180831161058257829003601f168201915b505050505081526020016002820180546105b890610e1c565b80601f01602080910402602001604051908101604052809291908181526020018280546105e490610e1c565b80156106315780601f1061060657610100808354040283529160200191610631565b820191906000526020600020905b81548152906001019060200180831161061457829003601f168201915b505050505081526020016003820160009054906101000a900461ffff1661ffff1661ffff16815260200160048201805461066a90610e1c565b80601f016020809104026020016040519081016040528092919081815260200182805461069690610e1c565b80156106e35780601f106106b8576101008083540402835291602001916106e3565b820191906000526020600020905b8154815290600101906020018083116106c657829003601f168201915b505050505081526020016005820160009054906101000a900460ff161515151581525050838381518110610740577f4e487b7100000000000000000000000000000000000000000000000000000000600052603260045260246000fd5b6020026020010181905250818061075690610e7f565b9250505b808061076590610e7f565b9150506103de565b5060008167ffffffffffffffff8111156107b0577f4e487b7100000000000000000000000000000000000000000000000000000000600052604160045260246000fd5b6040519080825280602002602001820160405280156107e957816020015b6107d6610921565b8152602001906001900390816107ce5790505b50905060005b8281101561088f57838181518110610830577f4e487b7100000000000000000000000000000000000000000000000000000000600052603260045260246000fd5b6020026020010151828281518110610871577f4e487b7100000000000000000000000000000000000000000000000000000000600052603260045260246000fd5b6020026020010181905250808061088790610e7f565b9150506107ef565b50809350505050919050565b8280546108a790610e1c565b90600052602060002090601f0160209004810192826108c95760008555610910565b82601f106108e257805160ff1916838001178555610910565b82800160010185558215610910579182015b8281111561090f5782518255916020019190600101906108f4565b5b50905061091d919061095d565b5090565b6040518060c00160405280600081526020016060815260200160608152602001600061ffff168152602001606081526020016000151581525090565b5b8082111561097657600081600090555060010161095e565b5090565b600061098d61098884610d30565b610d0b565b9050828152602081018484840111156109a557600080fd5b6109b0848285610dda565b509392505050565b6000813590506109c781610f66565b92915050565b600082601f8301126109de57600080fd5b81356109ee84826020860161097a565b91505092915050565b600081359050610a0681610f7d565b92915050565b600081359050610a1b81610f94565b92915050565b600080600080600060a08688031215610a3957600080fd5b600086013567ffffffffffffffff811115610a5357600080fd5b610a5f888289016109cd565b9550506020610a70888289016109f7565b945050604086013567ffffffffffffffff811115610a8d57600080fd5b610a99888289016109cd565b935050606086013567ffffffffffffffff811115610ab657600080fd5b610ac2888289016109cd565b9250506080610ad3888289016109b8565b9150509295509295909350565b60008060408385031215610af357600080fd5b6000610b0185828601610a0c565b9250506020610b12858286016109b8565b9150509250929050565b6000610b288383610bfc565b905092915050565b6000610b3b82610d71565b610b458185610d94565b935083602082028501610b5785610d61565b8060005b85811015610b935784840389528151610b748582610b1c565b9450610b7f83610d87565b925060208a01995050600181019050610b5b565b50829750879550505050505092915050565b610bae81610db6565b82525050565b610bbd81610db6565b82525050565b6000610bce82610d7c565b610bd88185610da5565b9350610be8818560208601610de9565b610bf181610f55565b840191505092915050565b600060c083016000830151610c146000860182610ca2565b5060208301518482036020860152610c2c8282610bc3565b91505060408301518482036040860152610c468282610bc3565b9150506060830151610c5b6060860182610c93565b5060808301518482036080860152610c738282610bc3565b91505060a0830151610c8860a0860182610ba5565b508091505092915050565b610c9c81610dc2565b82525050565b610cab81610dd0565b82525050565b610cba81610dd0565b82525050565b60006020820190508181036000830152610cda8184610b30565b905092915050565b6000604082019050610cf76000830185610cb1565b610d046020830184610bb4565b9392505050565b6000610d15610d26565b9050610d218282610e4e565b919050565b6000604051905090565b600067ffffffffffffffff821115610d4b57610d4a610f26565b5b610d5482610f55565b9050602081019050919050565b6000819050602082019050919050565b600081519050919050565b600081519050919050565b6000602082019050919050565b600082825260208201905092915050565b600082825260208201905092915050565b60008115159050919050565b600061ffff82169050919050565b6000819050919050565b82818337600083830152505050565b60005b83811015610e07578082015181840152602081019050610dec565b83811115610e16576000848401525b50505050565b60006002820490506001821680610e3457607f821691505b60208210811415610e4857610e47610ef7565b5b50919050565b610e5782610f55565b810181811067ffffffffffffffff82111715610e7657610e75610f26565b5b80604052505050565b6000610e8a82610dd0565b91507fffffffffffffffffffffffffffffffffffffffffffffffffffffffffffffffff821415610ebd57610ebc610ec8565b5b600182019050919050565b7f4e487b7100000000000000000000000000000000000000000000000000000000600052601160045260246000fd5b7f4e487b7100000000000000000000000000000000000000000000000000000000600052602260045260246000fd5b7f4e487b7100000000000000000000000000000000000000000000000000000000600052604160045260246000fd5b6000601f19601f8301169050919050565b610f6f81610db6565b8114610f7a57600080fd5b50565b610f8681610dc2565b8114610f9157600080fd5b50565b610f9d81610dd0565b8114610fa857600080fd5b5056fea2646970667358221220ec5fbaa5537093ca68cf0303700afe47e7fb64768e522f238c2a93be0e26ea3a64736f6c63430008040033",
  "linkReferences": {},
  "deployedLinkReferences": {}
}